:020000040800F2
:10000000080D0020CD030008F5010008F7010008E5
:10001000F9010008FB010008FD01000800000000D4
:10002000000000000000000000000000FF010008C8
:100030000102000800000000030200080502000899
:10004000E7030008E7030008E7030008E7030008E8
:10005000E7030008E7030008E7030008E7030008D8
:10006000E7030008E7030008E7030008E7030008C8
:10007000E7030008E7030008E7030008E7030008B8
:10008000E7030008E7030008E7030008E7030008A8
:10009000E7030008E7030008E7030008E703000898
:1000A000E7030008E7030008E7030008E703000888
:1000B000E703000807020008E7030008E703000859
:1000C000E7030008E7030008E7030008E703000868
:1000D000E7030008E7030008E7030008E703000858
:1000E000E7030008E7030008E703000800F002F850
:1000F00000F05AF80AA090E8000C82448344AAF168
:100100000107DA4501D100F04FF8AFF2090EBAE865
:100110000F0013F0010F18BFFB1A43F0010318473B
:100120000C3500002C3500000A444FF0000C10F88C
:10013000013B13F0070408BF10F8014B1D1108BF65
:1001400010F8015B641E05D010F8016B641E01F805
:10015000016BF9D113F0080F1EBF10F8014BAD1C55
:100160000C1B09D16D1E58BF01F801CBFAD505E073
:1001700014F8016B01F8016B6D1EF9D59142D6D3CD
:10018000704700000023002400250026103A28BFF5
:1001900078C1FBD8520728BF30C148BF0B607047F9
:1001A0001FB51FBD10B510BD02F054FD1146FFF77D
:1001B000F7FF00F009F802F072FD03B4FFF7F2FF59
:1001C00003BC02F079FD000001F058FA4FF4A06082
:1001D00000F01CF901F0F0FF01F09AFC01F0F9FACF
:1001E00002F0B5FA02F02CF9014802F04AFAFEE7F3
:1001F00040787D017047FEE7FEE7FEE7FEE77047C7
:1002000070477047704710B501210E4801F023FA7E
:100210000D480168491C01600C48002201680C4827
:1002200019B10168491C016000E0026009490888B1
:10023000401C80B208800A2803D14868401C4860EE
:100240000A8010BD000400407C02002074020020DF
:1002500084020020000000200CB5002201920092D0
:100260005248016841F4803101604FF4A063016895
:1002700001F4003100910199491C0191009911B9D3
:1002800001999942F3D10168890302D501210091B6
:1002900000E000920099012930D145490A6842F0F6
:1002A00010020A600A6822F003020A600A6842F03B
:1002B00002020A604168416041684160416841F45E
:1002C00080614160416821F47C114160416841F4E2
:1002D000E8114160016841F08071016001688901A5
:1002E000FCD5416821F003014160416841F0020101
:1002F00041604168C1F381010229FAD10CBDABE72D
:1003000010B52A48016841F0010101604168294A9D
:10031000114041600168284A11400160016821F4E0
:1003200080210160416821F4FE0141604FF41F010A
:100330008160FFF7E4FF21494FF00060086010BDC5
:1003400010B51A4A506800F00C011D4B1D480029D9
:100350000ED004290ED008290ED003605168194A26
:10036000C1F30311121D515C0268CA40026010BD46
:100370000360F3E70360F1E7516801F4701153681B
:1003800003F48033022404EB914133B153689B039F
:1003900007D50D4B59430160E0E70B4B5943016012
:1003A000DCE7074B59430160D8E70000001002402A
:1003B000002002400000FFF8FFFFF6FE08ED00E01D
:1003C00000127A000800002000093D00094880471B
:1003D00009480047FEE7FEE7FEE7FEE7FEE7FEE727
:1003E000FEE7FEE7FEE7FEE704480549054A064B3F
:1003F0007047000001030008ED0000080807002016
:10040000080D002008090020080900202A49084397
:100410002A490860704770B50F23C2780126017819
:10042000002A1ED0254A126802F4E062C2F5E0629A
:10043000120AC2F10404D3404578A54082781A40DC
:100440002A43120101F1E02181F80024007800F034
:100450001F018E404009800000F1E020C0F80061DB
:1004600070BD01F01F0086404809800000F1E020C7
:10047000C0F8806170BD124A114001430F48001F4F
:10048000016070470D4A121D002903D01168014315
:100490001160704711688143116070474FF0E0218F
:1004A000042804D0086920F0040008617047086936
:1004B00040F00400086170470000FA050CED00E010
:1004C00080FFFF1F10B59C49884209D101210420FB
:1004D00000F07DFA0021BDE81040042000F077BA5A
:1004E0009649884209D10121082000F070FA0021C4
:1004F000BDE81040082000F06ABA9149884209D14D
:100500000121102000F063FA0021BDE81040102006
:1005100000F05DBA8B49884209D10121202000F00A
:1005200056FA0021BDE81040202000F050BA86495C
:10053000884209D10121402000F049FA0021BDE89C
:100540001040402000F043BA8049884209D101217F
:10055000802000F03CFA0021BDE81040802000F02F
:1005600036BA7B4988420AD184150121204600F021
:100570002EFA2046BDE81040002100F028BA10BD38
:1005800010B50121084600F022FA0021BDE8104014
:10059000012000F01CBA2DE9F0410022CC7804F0D3
:1005A0000F03E40601D58C7823430C784FF00F0736
:1005B00014F0FF0F4FF0010C1CD005680CFA02F488
:1005C0000E882640A64211D1960007FA06F825EAC1
:1005D000080503FA06F848EA0505CE78282E02D069
:1005E000482E02D002E0446100E00461521C082A57
:1005F000E4D305600A88FF2A1ED94568002202F16B
:1006000008060CFA06F40E882640A64210D1960081
:1006100007FA06F825EA080503FA06F848EA050588
:10062000CE78282E00D14461CE78482E00D10461C6
:10063000521C082AE3D34560BDE8F0814FF6FF71F4
:100640000180022181700421C170704702460020A0
:1006500092680A4200D001207047806880B27047DB
:1006600002460020D2680A4200D001207047C068CC
:1006700080B270470161704741617047002A01D024
:100680000161704741617047C160704741F4803239
:1006900082618161826181698069704710B52D4BEB
:1006A0001A684FF68074224042EA0010084318602E
:1006B00010BD2949C8617047F0B5264C002801DA01
:1006C000E36900E06368C0F30346420D120185B29E
:1006D000C0F301579540032F07D0C2020CD5032267
:1006E000B240934343F0706209E023F070626368A4
:1006F00023F07063636002E0AB4343F0706201B1CA
:100700002A43002801DAE261F0BD6260F0BD10B555
:100710008A07120F0F23934021F003040D4921444F
:100720008C689C438C608B68904003438B6010BD49
:100730000949DC310860704700080140000C0140A5
:10074000001001400014014000180140001C01404D
:10075000002001400000014000002042B448016830
:1007600041F0010101604168B24A114041600168F5
:10077000B14A11400160016821F4802101604168A3
:1007800021F4FE0141604FF41F0181607047A849C8
:100790000A6822F480320A600A6822F480220A6021
:1007A000B0F5803F07D0B0F5802F03D1086840F442
:1007B000A02008607047086840F4803008607047E7
:1007C0000346002059099A4A01290AD002290AD071
:1007D000516A03F01F02012393400B4200D0012015
:1007E00070471168F5E7116AF3E718B5002000902B
:1007F0004FF4A0643120FFF7E3FF0099491C0091FA
:100800000099A14201D00028F4D03120FFF7D8FF91
:1008100008B1012018BD002018BD854A116821F0DB
:10082000F80141EAC00010607047844908607047D1
:100830007F4B5A6822F47C1208431043586070477B
:100840007E49086670477A4A516821F003010143E6
:10085000516070477648406800F00C007047744A59
:10086000516821F0F001014351607047704A5168AE
:1008700021F4E0610143516070476D4A516821F4F1
:10088000605141EAC00050607047694A002903D0B6
:10089000517A014351727047517A814351727047C6
:1008A0006649D83108607047614A516821F4404177
:1008B0000143516070475E49002220310A7001F8FF
:1008C0002029012805D0042802D1052081F8200024
:1008D0007047012081F8200070475949086070472F
:1008E00053490A6A02430A6270475549443908600D
:1008F000704710B54E4A516801F00C01514B002968
:1009000027D0042927D0082927D00360516801F097
:10091000F00109094C4B5C5C0168E140416054689E
:1009200004F4E064240A1C5D21FA04F48460546831
:1009300004F46054E40A1B5DD940C160526802F4BB
:100940004042920B404B1B1F9A5CB1FBF2F10161DC
:1009500010BD0360DAE70360D8E7516801F4701155
:10096000536803F48033022404EB914133B153689C
:100970009B0307D5354B59430160C7E7334B5943B8
:100980000160C3E72F4B59430160BFE7284A0029A4
:1009900003D05169014351617047516981435161ED
:1009A0007047234A002903D0916901439161704740
:1009B00091698143916170471D4A002903D0D16933
:1009C0000143D1617047D1698143D1617047184AB1
:1009D000002903D0D1680143D1607047D1688143B9
:1009E000D1607047124A002903D011690143116197
:1009F000704711698143116170471149403908609E
:100A000070470E49C86470470949C8717047084863
:100A1000416A41F080714162704701460020044AFA
:100A200092680A4200D001207047014988727047DD
:100A3000001002400000FFF8FFFFF6FE00004242F7
:100A40008004424200127A002000002000093D008C
:100A500010B5FE4988420AD1C41401212046FFF78F
:100A6000B6FF2046BDE810400021FFF7B0BFB0F14F
:100A7000804F0CD0F649884213D101210220FFF7A4
:100A8000B1FF0021BDE810400220FFF7ABBF0121FC
:100A90000846FFF7A7FF0021BDE810400120FFF73F
:100AA000A1BFEC49884209D101210420FFF79AFF38
:100AB0000021BDE810400420FFF794BFE6498842BA
:100AC00009D101210820FFF78DFF0021BDE810406A
:100AD0000820FFF787BFE149884209D10121102092
:100AE000FFF780FF0021BDE810401020FFF77ABF1C
:100AF000DB49884209D101212020FFF773FF002143
:100B0000BDE810402020FFF76DBFD64988420AD1CA
:100B1000441401212046FFF75AFF2046BDE810404B
:100B20000021FFF754BFD04988420AD10121CC04EB
:100B30002046FFF74CFF2046BDE810400021FFF79C
:100B400046BFCA4988420AD101210C052046FFF759
:100B50003EFF2046BDE810400021FFF738BFC449E2
:100B600088420AD101214C052046FFF730FF20467C
:100B7000BDE810400021FFF72ABFBE49884209D1D5
:100B800001214020FFF72EFF0021BDE8104040204A
:100B9000FFF728BFB849884209D101218020FFF71B
:100BA00021FF0021BDE810408020FFF71BBFB349A3
:100BB00088420AD1841501212046FFF713FF204601
:100BC000BDE810400021FFF70DBFAD4988420AD1B2
:100BD00001210C042046FFF7FAFE2046BDE8104034
:100BE0000021FFF7F4BEA74988420AD101214C0435
:100BF0002046FFF7ECFE2046BDE810400021FFF73D
:100C0000E6BEA14988420AD101218C042046FFF7A3
:100C1000DEFE2046BDE810400021FFF7D8BE10BD23
:100C200030B50288894C8F4DA0420DD0A8420BD020
:100C3000B0F1804F08D0864B984205D0854B984242
:100C400002D0854B984203D122F070034A881A43A0
:100C5000824B984206D0824B984203D022F44073D4
:100C6000CA881A4302808A8882850A880285A0423F
:100C70000AD0A84208D0824A904205D0814A9042C8
:100C800002D0814A904201D1097A018601218182F4
:100C900030BD30B5028C22F001020284028C8388C0
:100CA000048B24F0700424F003050C882C4322F0FC
:100CB00002020D8915434A882A43644DA8420BD08D
:100CC000684DA84208D06E4DA84205D06D4DA8428F
:100CD00002D06D4DA8420FD122F008054A892A435F
:100CE00022F004058A882A4323F4807323F40073D6
:100CF0008D891D43CB892B4383800483C9888186DA
:100D0000028430BD70B5028C22F010020284028C85
:100D10008388048B24F4E04424F440760D884FF655
:100D2000FF7404EA0525354322F020020E8904EA07
:100D3000061616434A8804EA02123243434EB04272
:100D400002D0484EB04217D122F080024E8904EA08
:100D50000616164326F040068A8804EA0212324339
:100D600023F4806323F400638E8904EA86061E431D
:100D7000CB8904EA8303334383800583C9880187D1
:100D8000028470BD70B5028C22F480720284028CE1
:100D90008388848B24F0700424F003040D88254399
:100DA00022F400720E894FF6FF7404EA06261643F9
:100DB0004A8804EA02223243244EB04202D0294E2D
:100DC000B04217D122F400664A8904EA0222324373
:100DD00022F480668A8804EA0222324323F4805394
:100DE00023F400538E8904EA06161E43CB8904EAD5
:100DF0000313334383808583C9888187028470BD50
:100E000070B5028C22F480520284058C8288838B18
:100E100023F4E04323F440760C884FF6FF7303EA93
:100E20000424344325F400550E8903EA06362E4384
:100E30004D8803EA05353543044EB04202D0094ED1
:100E4000B04226D122F480468A891FE0002C01405E
:100E50000004004000080040000C0040001000406A
:100E60000014004000340140004C0140005001409B
:100E70000054014000180040001C004000200040C9
:100E800000400140004401400048014003EA821252
:100E9000324382808483C988A0F84010058470BDE5
:100EA000828B22F440628283828B4FF6FF7303EAC7
:100EB00001210A4382837047F0B5048C24F48054E6
:100EC0000484868B048C4FF6FF7505EA013726F4FF
:100ED000734605EA0222324305EA03331343F74A15
:100EE00090420ED0F64A90420BD0B0F1804F08D01D
:100EF000F44A904205D0F44A904202D0F34A90421C
:100F000005D124F40051394341F4805104E024F424
:100F100002420A4342F4805183830184F0BD828BF4
:100F200022F00C028283828B0A4382837047F0B5E1
:100F3000048C24F480740484858B048C4FF6FF7732
:100F400007EA012625F0F30507EA031313432B43B1
:100F5000DA4A90420ED0DA4A90420BD0B0F1804F7C
:100F600008D0D84A904205D0D74A904202D0D74AFA
:100F7000904205D124F40071314341F4807104E0C2
:100F800024F420620A4342F4807183830184F0BD1B
:100F9000028B22F440620283028B4FF6FF7303EA56
:100FA00001210A4302837047F0B5048C24F0100439
:100FB0000484068B048C4FF6FF7505EA011726F4AE
:100FC000734605EA0333334305EA02221A43BB4B57
:100FD00098420ED0BA4B98420BD0B0F1804F08D057
:100FE000B84B984205D0B84B984202D0B74B9842C4
:100FF00005D124F02001394341F0100104E024F030
:10100000A0030B4343F0100102830184F0BD028B67
:1010100022F00C020283028B0A430283704770B5F0
:10102000048C24F001040484058B048C25F0F30562
:101030004FF6FF7606EA031313432B439F4A904271
:101040000ED09F4A90420BD0B0F1804F08D09D4AFD
:10105000904205D09C4A904202D09C4A904205D1D1
:1010600024F002020A4342F0010104E024F00A02E3
:101070000A4342F001010383018470BD70B5054647
:101080000C468E48854209D08D48854206D0B5F180
:10109000804F03D08B48854200D08B4820886188E0
:1010A000A288238958B1042811D0082817D02846CF
:1010B000FFF702FFE1882846BDE87040F0E62846C9
:1010C000FFF7ADFFE1882846BDE870409FE728465E
:1010D000FFF76AFFE1882846BDE8704058E72846D8
:1010E000FFF725FFE1882846BDE8704017E72DE9A6
:1010F000F04107460C46002501266188002900D1F1
:101100000225A288012A00D102262088238988B1DD
:101110003846FFF749FFE1883846FFF739FF238952
:10112000324629463846FFF77AFFE1883846BDE85F
:10113000F0416CE73846FFF772FFE1883846FFF769
:1011400066FF2389324629463846FFF72DFFE1889E
:101150003846BDE8F0411BE710B50A884B88CC88BB
:101160001A438B8823431A430B891A434B89898975
:101170001A430A43A0F8442010BD4FF6FF71818046
:1011800000210180C18041800172704700210180EF
:1011900041808180C180018141818181C18170470D
:1011A00000210180418001228280C180018170473D
:1011B0000021018041808180C18001814181818144
:1011C0007047002904D0018841F001010180704777
:1011D000018821F0010101807047002905D030F815
:1011E000441F41F400410180704730F8441FC1F3AF
:1011F0000E0101807047002A03D082890A43828150
:10120000704782898A438281704781827047114387
:10121000A0F848107047002A03D082890A438281CF
:10122000704782898A4382817047018921F00701D2
:1012300001817047028922F070020A4302817047DF
:1012400000B503461846FFF7F5FF188940F0070080
:10125000188100BD70B50D4604461146602D0CD0B6
:1012600001222046FFF7DBFE29462046FFF7E2FF7A
:10127000208940F00700208170BD01222046FFF741
:1012800093FEF1E730B50489E4B24FF6FF7505EA45
:10129000032313430B432343038130BD10B504469E
:1012A0002046FFF7EFFF208920F0070040F00700FD
:1012B00020F0700040F07000208110BD002C014033
:1012C000003401400004004000080040000C0040D1
:1012D00010B504462046FFF7D5FF208940F4804032
:1012E0002081EAE7018582827047028822F070023D
:1012F0000A430280704770B50589048B068C25F07F
:1013000007050D434FF6FC410C4040F201110C4320
:1013100026F022064FF6FF7101EA03111143314313
:1013200005810483018470BD028B22F070020A43A0
:1013300002837047028B22F4E0424FF6FF7303EA08
:101340000121114301837047828B22F070020A430E
:1013500082837047828B22F4E0424FF6FF7303EAE8
:101360000121114381837047002904D0018841F095
:10137000800101807047018821F080010180704761
:10138000002904D0818841F0040181807047818860
:1013900021F0040181807047002904D0818841F048
:1013A000080181807047818821F0080181807047A1
:1013B000002904D0818841F0010181807047818833
:1013C00021F0010181807047028B22F008020A435C
:1013D00002837047028B22F400624FF6FF7303EA28
:1013E0000121114301837047828B22F008020A43D6
:1013F00082837047828B22F400624FF6FF7303EA08
:101400000121114381837047028B22F004020A43B9
:1014100002837047028B22F480624FF6FF7303EA67
:101420000121114301837047828B22F004020A4399
:1014300082837047828B22F480624FF6FF7303EA47
:101440000121114381837047028B22F080020A43FD
:1014500002837047028BC2F30E024FF6FF7303EA5A
:101460000121114301837047828B22F080020A43DD
:1014700082837047828BC2F30E024FF6FF7303EA3A
:101480000121114381837047028C22F002020A433A
:1014900002847047028C22F008020A4302847047DB
:1014A000028C22F020024FF6FF7303EA0111114370
:1014B00001847047028C22F080024FF6FF7303EA2A
:1014C0000111114301847047028C22F400724FF61F
:1014D000FF7303EA0121114301847047028C22F457
:1014E00000624FF6FF7303EA012111430184704744
:1014F000028C22F400524FF6FF7303EA01311143CC
:101500000184704710B501238B40048C9C430484F4
:10151000038C8A4013430384CFE610B504238B4029
:10152000048C9C430484038C8A4013430384C4E6E4
:1015300030B500F1180301248C40058CA5430584C7
:10154000002911D008290FD0091FC1F34E001844FB
:10155000016821F4E041016001684FF6FF7303EA7E
:1015600002221143016030BD03EB5100016821F0FC
:101570007001016001681143016030BD002904D091
:10158000018841F0020101807047018821F00201C9
:1015900001807047002904D0018841F004010180D6
:1015A0007047018821F0040101807047002904D0B0
:1015B000818841F0800181807047818821F080011D
:1015C00081807047028822F00802028002880A4364
:1015D00002807047828822F07002828082880A43EB
:1015E00082807047028922F00702028102890A4341
:1015F00002817047028922F08002028102890A4337
:101600000281704781847047818570478186704769
:101610000187704781877047A0F8401070470288A3
:1016200022F44072028002880A4302807047808E52
:101630007047008F7047808F7047B0F84000704748
:10164000808C7047008D704702460020128A0A4243
:1016500000D001207047C943018270470246002034
:10166000138A0B4092890A40002B02D0002A00D036
:1016700001207047C94301827047000010B56FF028
:101680000400FEF70BFF204820490068B0FBF1F092
:101690001F49C0B2087000EB4002C2EBC0104FF609
:1016A000FF7202EAC000488010BD1949097848431A
:1016B0004FF0E021486100238B61086940F0010090
:1016C00008610869C20701D0C003FAD5086920F093
:1016D000010008618B6170470D49498848434FF00C
:1016E000E021486100238B61086940F00100086136
:1016F0000869C20701D0C003FAD5086920F00100CB
:1017000008618B61704700000800002000127A0019
:101710003000002070B50546FA4E002904D0102193
:101720003046FEF7A7FF03E010213046FEF7A4FF86
:10173000002440213046FEF79FFF280604D5802173
:101740003046FEF797FF03E080213046FEF794FF16
:1017500040213046FEF78EFF6806050E641CE4B299
:10176000082CE6D33046BDE870401021FEF782BF5A
:1017700010B50446B031C8B20021FFF7CBFF1020EE
:1017800040EA14100021FFF7C5FF04F00F00BDE888
:10179000104040F001000021BCE710B500218D2071
:1017A000FFF7B8FF00211420FFF7B4FF0021BDE8C8
:1017B0001040AF20AEE710B500218D20FFF7AAFF43
:1017C00000211020FFF7A6FF0021BDE81040AE2049
:1017D000A0E770B5002505F1B000C0B20021FFF709
:1017E00099FF00210846FFF795FF00211020FFF721
:1017F00091FF002401210020FFF78CFF641CE4B25C
:10180000802CF7D36D1CEDB2082DE4D370BD2DE90B
:10181000F04180460E460024203AD5B2B8F17F0F41
:1018200002D9A046B61CF6B205F12000B64F8028BA
:1018300020D231464046FFF79BFF04EB0510012103
:10184000385CFFF767FF641CE4B2082CF5D3761C04
:10185000F1B24046FFF78CFF002404EB051038443A
:101860000121007AFFF756FF641CE4B2082CF4D380
:10187000BDE8F081803DEDB231464046FFF778FF8C
:1018800004EB05100121385CC043C0B2FFF742FFF2
:10189000641CE4B2082CF3D3761CF1B24046FFF787
:1018A00067FF002404EB051038440121007AC0438F
:1018B000C0B2FFF72FFF641CE4B2082CF2D3D7E7C5
:1018C0002DE9F047814688461E460024203AD5B2CD
:1018D000B9F17F0F04D9A14608F1020808F0FF080A
:1018E00041464846FFF744FF874F012E24D004EBC2
:1018F00005100121385CC043C0B2FFF70BFF641C28
:10190000E4B2082CF1D308F1010808F0FF014846C1
:10191000FFF72EFF0024012E15D004EB05103844EC
:101920000121007AC043C0B2FFF7F4FE641CE4B2A8
:10193000082CF0D3BDE8F08704EB05100121385CDA
:10194000FFF7E8FEDBE704EB051038440121007ADD
:10195000FFF7E0FEEAE70346012000E05843491E96
:10196000C9B2FBD270472DE9F05F8046DDE90A0B72
:101970008A4691461D460026002447081DE0281B84
:10198000401EC1B20A20FFF7E6FFB9FBF0F00A21C2
:10199000B0FBF1F201FB120026B9691E8C4201DA9C
:1019A00078B101263030C2B207FB0480C0B25B467A
:1019B0005146FFF785FF641CE4B2AC42DFD3BDE8BB
:1019C000F09F07FB0480C0B25B4620225146FFF720
:1019D00077FFF0E72DE9F047804608988A46914660
:1019E0001D460026002447081CE0281B401EC1B2EB
:1019F0000A20FFF7B0FFB9FBF0F00A21B0FBF1F2CB
:101A000001FB120326B9681E844201DA6BB101267C
:101A100007FB04803033DAB2C0B25146FFF7F7FE5D
:101A2000641CE4B2AC42E0D384E707FB0480C0B29C
:101A300020225146FFF7EBFEF2E72DE9F041044684
:101A40000E46174600250CE031462046FFF7DFFE24
:101A50000834E4B2782C02D90024B61CF6B26D1C0E
:101A6000EDB27A5D002AEFD102E72DE9F047814619
:101A70008846174641464846FFF77AFE0024234E23
:101A800006EB87150121285DFFF744FE641CE4B2D4
:101A9000102CF7D308F1010808F0FF014846FFF7C2
:101AA00067FE0024012000EB470006EB40150121F2
:101AB000285DFFF72FFE641CE4B2102CF7D339E742
:101AC0002DE9F0478246DDF820900E4690461F46ED
:101AD0000025780712E031465046FFF749FE54468C
:101AE00008E028466D1C19F800000121FFF712FEDE
:101AF000641CE4B24445F4D3761CF6B2BE42EAD389
:101B000018E7000000080140C62C0008340000203F
:101B100038B501210420FEF744FFF020ADF80000A5
:101B200010208DF8030003208DF80200FE4C69465A
:101B30002046FEF730FDF0212046FEF79BFD2021D8
:101B40002046FEF797FD6420FFF7C6FD20212046C2
:101B5000FEF792FD6420FFF7BFFD20212046FEF72F
:101B600089FD0021AE20FFF7D5FD00210846FFF7D3
:101B7000D1FD00211020FFF7CDFD00214020FFF70F
:101B8000C9FD00218120FFF7C5FD0021CF20FFF70F
:101B9000C1FD0021A120FFF7BDFD0021C820FFF7F6
:101BA000B9FD0021A620FFF7B5FD0021A820FFF711
:101BB000B1FD00213F20FFF7ADFD0021D320FFF74D
:101BC000A9FD00210846FFF7A5FD0021D520FFF75C
:101BD000A1FD00218020FFF79DFD0021D920FFF706
:101BE00099FD0021F120FFF795FD0021DA20FFF794
:101BF00091FD00211220FFF78DFD0021DB20FFF772
:101C000089FD00214020FFF785FD00212020FFF7FE
:101C100081FD00210220FFF77DFD00218D20FFF7CF
:101C200079FD00211420FFF775FD0021A420FFF7A6
:101C300071FD0021A620FFF76DFD0021AF20FFF709
:101C400069FD0021AF20FFF765FDFFF7C2FD002110
:101C50000846FFF78DFDFFF7BCFD00210846FFF7A2
:101C600087FD0021B14C0022002004EBC1131A545F
:101C7000401CC0B28028FAD3491CC9B20829F3D34A
:101C800038BD10B500F07F00C1F3C20301F00702B8
:101C9000A649012401EBC31194400B5C23430B5470
:101CA00010BD10B50021A14C0022002004EBC1138F
:101CB0001A54401CC0B28028FAD3491CC9B2082962
:101CC000F3D310BD2DE9F0410025984F294600209F
:101CD000FFF74EFD002407EBC5160121305DFFF72D
:101CE00019FD641CE4B2802CF7D36D1CEDB2082DF5
:101CF000ECD3BDE52DE9FE4F00250026171AA3EB16
:101D0000010881468A46681E002F03DD4FF001015D
:101D1000019107E003D14FF00001019102E0019031
:101D2000C7F10007B8F1000F03DD4FF0010000908C
:101D300007E003D14FF00000009002E00090C8F1EE
:101D40000008474501DD3C4600E044464FF0000BEB
:101D5000601C029015E00AF0FF0109F0FF00FFF798
:101D600090FF3D444644A54202DD2D1B019881446D
:101D7000A64202DD361B009882440BF1010B1FFACC
:101D80008BFB02988345E6DDBDE8FE8F70B5044607
:101D90000D46002229462046FFF767FE04F1100099
:101DA000C0B201222946FFF760FE04F12000C0B254
:101DB00004222946FFF759FE3034E0B22946BDE837
:101DC0007040052251E670B504460D4608222946AA
:101DD0002046FFF74AFE1034E0B22946BDE87040C5
:101DE000062242E670B504460D46002229462046EA
:101DF000FFF73BFE1034E0B22946BDE870400122F7
:101E000033E670B504460D46062229462046FFF704
:101E10002CFE04F11000C0B207222946FFF725FE70
:101E200004F12000C0B202222946FFF71EFE303422
:101E3000E0B22946BDE87040032216E670B50446BC
:101E40000D46002229462046FFF70FFE04F1100040
:101E5000C0B201222946FFF708FE04F12000C0B2FB
:101E600002222946FFF701FE3034E0B22946BDE8E0
:101E700070400322F9E570B504460D460622294656
:101E80002046FFF7F2FD04F11000C0B207222946F8
:101E9000FFF7EBFD04F12000C0B202222946FFF754
:101EA000E4FD3034E0B22946BDE870400322DCE5B1
:101EB0002DE9F04186B005460E461446029601957E
:101EC0004FF00008CDF80080194F75E02078802889
:101ED0000ED2029601952278BDF80800C1B2BDF875
:101EE0000400C0B2FFF793FC0835ADB2641C63E098
:101EF000CDF8008016E02178BDF8000000EB00105E
:101F000017F81000814209D16178BDF8000000EB9C
:101F1000001007EB4000407881420FD0BDF8000070
:101F2000401C009006E0000000080140A4020020D0
:101F3000B6320008BDF800001B28DCD3BDF8000055
:101F40001B2801D1CDF80080CDF80C802DE0019543
:101F50009DF80C0030440290BDF80800C1B2E8B210
:101F6000FFF706FCCDF8108017E0BDF800009DF8E3
:101F7000101000EB001007EB40009DF80C2001EB67
:101F8000021108448078059001219DF81400FFF7A4
:101F9000C1FB9DF81000401C04909DF81000102813
:101FA000E3D39DF80C00401C03909DF80C00022820
:101FB000CDD31035ADB2A41C2078002886D106B050
:101FC00056E42DE9F04387B005460E46144699467F
:101FD000039602954FF00008CDF80480754F79E024
:101FE000207880280FD2039602952278BDF80C0045
:101FF000C1B2BDF808004B46C0B2FFF761FC08351E
:10200000ADB2641C66E0CDF8048016E02178BDF81E
:10201000040000EB001017F81000814209D161782C
:10202000BDF8040000EB001007EB4000407881424F
:1020300007D0BDF80400401C0190BDF804001B2827
:10204000E4D3BDF804001B2801D1CDF80480CDF8FD
:10205000108038E002959DF8100030440390BDF8E0
:102060000C00C1B2E8B2FFF783FBCDF8148022E088
:10207000BDF804009DF8141000EB001007EB4000C1
:102080009DF8102001EB0211084480780690B9F108
:10209000000F05D001219DF81800FFF73BFB06E07B
:1020A0009DF818000121C043C0B2FFF733FB9DF833
:1020B0001400401C05909DF814001028D8D39DF8FA
:1020C0001000401C04909DF810000228C2D3103567
:1020D000ADB2A41C2078002882D107B0BDE8F083FF
:1020E0002DE9F0478146884615461E46414648463A
:1020F000FFF73EFB00240121FC20FFF70BFB641CD3
:10210000E4B2042CF7D30121FF20FFF703FB0024E6
:1021100005E001210320FFF7FDFA641CE4B2B4429C
:10212000F7D30121FF20FFF7F5FA09EB0600471B63
:102130007F1DF8B24146FFF71BFB00246D1C05E034
:102140000121FF20FFF7E6FA641CE4B2AC42F7D3AA
:1021500008F1010808F0FF014846FFF709FB0024D9
:1021600001213F20FFF7D6FA641CE4B2042CF7D318
:102170000121FF20FFF7CEFA002405E00121C02055
:10218000FFF7C8FA641CE4B2B442F7D30121FF2080
:10219000FFF7C0FAF8B208F0FF01FFF7E9FA0024F0
:1021A00005E00121FF20FFF7B5FA641CE4B2AC4260
:1021B000F7D339E4B632000830B585B001210C20E0
:1021C000FEF7EFFB01210220FEF7F6FB48208DF819
:1021D00013000E20ADF8100001248DF8124004A960
:1021E0005348FEF7D8F90320ADF8100004A9514870
:1021F000FEF7D1F9504D2846FEF72AFC4721ADF8ED
:10220000041040F2E731ADF808100021ADF80A10D3
:10221000ADF8061001A92846FEF702FD0122412172
:102220002846FEF7E8FF01212846FEF7CAFF1D20D9
:102230008DF800008DF803408DF801408DF80240C4
:102240006846FEF7E8F805B030BD39480830006848
:1022500060F00E0037490831096861F0030101227E
:1022600002EB40000840704730B5FFF7EEFFC04377
:1022700032490A6820EA02028A6108604B6813B991
:102280008B680A334B61012302B14B604A6800241A
:102290009AB14D698A68AA420FD912F10A0F0CD27D
:1022A00004281FD004DC012816D0022804D116E02F
:1022B00008281AD010281AD0CC600A69B2F57A7FA3
:1022C0001DD340F29E220A61042820D012DC01288E
:1022D00017D0022812D117E00322CA60EDE70222CC
:1022E000CA60EAE70522CA60E7E7CB60E5E70422B7
:1022F000CA60E2E708280DD010280ED0CC60C8686C
:1023000030BD0D20C860FAE70C20C860F7E70F2049
:10231000C860F4E70B20C860F1E70E20C860EEE764
:102320000648C168002902D000214160C1607047A1
:1023300000080140000C014000040040740200202D
:1023400000E0401E0028FCD170472DE9F043DFF883
:10235000A8934FF00108C9F8A081C006050E00241B
:10236000E64E00270B780022180602D5C6F8BC817D
:1023700001E0C6F8BC715806030E3220FFF7E0FFFB
:10238000C6F8B8713220FFF7DBFFC6F8B8813220FB
:10239000FFF7D6FFC6F8B8713220FFF7D1FF521C05
:1023A000D2B2082AE0D3491C641CE4B2032CD9D36E
:1023B000C9F8A0716420FFF7C3FF0021280602D5E9
:1023C000C6F8BC8101E0C6F8BC716806050EC6F807
:1023D000B8713220FFF7B4FFC6F8B8813220FFF79A
:1023E000AFFFC6F8B8713220FFF7AAFF491CC9B287
:1023F0000529E3D30021C6F8BC71C6F8B8713220B4
:10240000FFF79EFFC6F8B8813220FFF799FFC6F8A4
:10241000B8713220FFF794FF491CC9B20329EAD3EF
:10242000C9F8A0713220FFF78BFFC9F8A0813220D4
:10243000FFF786FFC9F8A071BDE8F04332207FE7BF
:10244000F8B501210C20FEF7ACFA28208DF8030026
:102450004FF40050ADF8000001248DF80240A84E62
:1024600069463046FEF797F8A64DAC604FF45041F0
:10247000ADF8001010218DF8031003218DF8021023
:1024800069463046FEF787F82002ADF8000069463D
:102490009D48FEF780F82C601420FFF71DF99B483B
:1024A0000021017041702021817001460020FFF75A
:1024B0004CFF1420FFF710F9F8BD0022002100E0C6
:1024C000491C8142FCD3521CD2B2642AF6D3704715
:1024D0002DE9F8430024009405784678877890F831
:1024E00003808DF800408DF8014002208DF8020035
:1024F00069460120FFF729FF8DF800408DF8014063
:1025000001208DF8020069460220FFF71EFF7F4878
:10251000C01E01788DF8001041788DF80110807888
:102520008DF8020069460520FFF70FFF8DF8004087
:1025300028208DF8010098208DF8020069460520BA
:10254000FFF703FF8DF800408DF801408DF8024041
:1025500069460520FFF7F9FE4FF020098DF800903D
:102560000B208DF801004A208DF8020069460620F4
:10257000FFF7EBFE8DF800400D208DF80100CD2017
:102580008DF8020069460720FFF7DFFE54208DF822
:1025900000003F208DF80100FF208DF80200694601
:1025A0000920FFF7D2FE8DF800408DF801904620FB
:1025B0008DF8020069460A20FFF7C7FE8DF800403B
:1025C0008DF8014081208DF8020069460F20FFF749
:1025D000BCFE8DF800408DF801408DF80250694630
:1025E0000320FFF7B2FE8DF800808DF801708DF8A2
:1025F000026069460420FFF7A8FEBDE8F883F0B545
:10260000434D6FF07F42B0FBF5F1404E3170B0FBAF
:10261000F5F105FB1107B2FBF5F0B2FBF5F105FB97
:10262000112307FB00F10024641CE2B2012004E046
:1026300000EB80004000521ED2B2002AF8D1B5FB58
:10264000F0F2B3FBF2FC02FB1C32B5FBF0FCB3FB77
:10265000FCF37B43B3FBF0F013465A1F052A00D26C
:10266000491C0144E4B2072CDED37170080AB07033
:10267000000AF0702548FFF72BFFBDE8F04032203C
:102680001BE770B5044646F21005224A00201646A4
:10269000121B70EB000100DA34461D48844200D260
:1026A0000446002322463046194600F035FA80B22F
:1026B000022801D201210BE0032801D2022107E008
:1026C0003E2801D93E2103E0C10700D0401E81B25F
:1026D000032901D2012000E0002008B14EF21005CC
:1026E00045EAC11204FB01F00849130AC91E4B70E8
:1026F0008A70BDE8704082E70000214200802142DC
:10270000000C0140B08121420008014093020020EA
:1027100040787D01005ED0B270B50B78002B06D0FA
:10272000D74CD84B012566781B6816B104E0002011
:1027300070BD1844606065706068834205D30020F6
:10274000607008701570012070BD002070BD10B55C
:10275000CDA206210020FFF7ABFBCDA20621382039
:10276000FFF7A6FBCCA200212020FFF7A1FBCDA202
:1027700002210020FFF79CFBCDA204210020FFF7DF
:1027800097FBD0A206210020FFF792FBBDE8104086
:102790004FF47A70FEF7A0BF30B503783033DBB268
:1027A0000B702C244C70457830358D708578303521
:1027B000CD70C57830350D714C71057930358D711E
:1027C00045793035CD71857930350D724C72C479CB
:1027D00030348C72047A3034CC72407A30300873E2
:1027E000482048737A2088730020C873002A06D0D6
:1027F0008818042A06D241788031417030BD803378
:102800000B7030BD072A03D281788031817030BDD2
:102810000A2AFCD2C1788031C17030BD0346012044
:1028200000E05843491EC9B2FBD270472DE9F0437E
:102830000D46DDE90789DDE90967044611460A20EE
:10284000FFF7ECFF241A65F10005B4EB080075EB07
:10285000090001D334463D46301BAF4100D3344616
:102860002046BDE8F0832DE9F04307AE0D4696E81B
:10287000C003044611460A20FFF7D0FF041945F1B2
:102880000005A01B75EB070001D334463D46B8EBAD
:10289000040079EB050900D344462046E1E770B512
:1028A0008AB00446764D0026287800280DD00E24E4
:1028B000FEF78FFF88A200212020FFF7F9FA89A2F6
:1028C00006210020FFF7F4FA2E70102C5DD2DFE80D
:1028D00004F05C0818105C395C5C5C5C5C0C2914CE
:1028E0005C4BA878401CA8704FE0A878401CA870EA
:1028F0004BE0A878401EA87047E0A878401EA8705A
:1029000043E07D490020CDE902107C49CDE900106B
:10291000A8780021C0F10900C2B2A868FFF7A3FFA0
:10292000A86032E074480021CDE902017348CDE986
:102930000001A878C0F10900C2B2A868FFF793FFB0
:10294000A86022E06C480021CDE902016B4900201B
:10295000CDE90010A8780021C0F10900C2B2A86832
:10296000FFF764FFA86010E063480021CDE9020191
:1029700062490020CDE90010A8780021C0F10900CB
:10298000C2B2A868FFF752FFA860A878FF2802D05B
:102990000A2803D003E00920A87000E0AE70002CE4
:1029A0006CD0AC68564A02232046002100F0B4F8EF
:1029B000544E104619463246002300F0ADF88DF80B
:1029C0001C00B4FBF6F006FB10414F48B1FBF0F1E0
:1029D0008DF81D10B4FBF0F100FB11414B48B1FB29
:1029E000F0F18DF81E10B4FBF0F100FB11414848E6
:1029F000B1FBF0F18DF81F10B4FBF0F100FB1141B9
:102A00004448B1FBF0F18DF82010B4FBF0F100FB6D
:102A1000114142F21070B1FBF0F18DF82110B4FBBE
:102A2000F0F100FB11414FF47A70B1FBF0F18DF839
:102A30002210B4FBF0F100FB11416420B1FBF0F176
:102A40008DF82310B4FBF0F100FB11410A20B1FB1B
:102A5000F0F18DF82410B4FBF0F100FB11408DF87B
:102A60002500AA7804A907A8FFF796FE04AA022168
:102A70000420FEF7E2FFA868FFF703FE0AB070BD6E
:102A80009802002004000020484D433833300000F5
:102A9000696E6974000000004368616420484D431A
:102AA000383330005468756E646572636F636B0011
:102AB00031323334353637383930313233343536D4
:102AC00000000000383D3D3D3D3D3D3D3D3D3D3D2F
:102AD000442D2D2D00000000467265712073657431
:102AE0000000000020A1FB2020A1FC2020A1FD204F
:102AF00020A1FA200000000040787D01005ED0B2E5
:102B000000E40B5400CA9A3B00E1F505809698005A
:102B100040420F00A086010010B54C1084EA530417
:102B200004D54042C1F1000138BF491E1B4204D503
:102B30005242C3F1000338BF5B1E00F014F814F0DA
:102B4000804F04D04042C1F1000138BF491E14F04B
:102B5000004F04D05242C3F1000338BF5B1E10BDCA
:102B600070477047704753EA020C00F069802DE906
:102B7000F04B4FF00006002B1FBFB3FA83F503FAAA
:102B800005F424FA05F65E4012BF1643B2FA82F548
:102B900002FA05F4C5F120051EBF22FA05FC44EA3D
:102BA0000C04203556EA044C4FEA144418BF641C48
:102BB0004FF000084FF00009904271EB030C39D33D
:102BC000002919BFB1FA81F701FA07F6B0FA80F7C8
:102BD00000FA07F6C7F120071EBF20FA07FC46EAF5
:102BE0000C062037B6FBF4FCA7EB0507103F07F0F7
:102BF0001F0BCBF120060CFA0BFB2CFA06F644BF98
:102C0000B3460026202FA4BF5E464FF0000B5BEAC0
:102C1000060C08BF4FF0010B19EB0B09ABFB027C54
:102C200048EB0608C01B06FB02CC0BFB03CC71EB88
:102C30000C01C1E70B46024641464846BDE8F08B11
:102C400013B54FF000004FF00001AFF30080BDE876
:102C50001C407047754600F02BF8AE4605006946EB
:102C6000534620F00700854618B020B5FDF7BCFBA1
:102C7000BDE820404FF000064FF000074FF000087D
:102C80004FF0000B21F00701AC46ACE8C009ACE8FE
:102C9000C009ACE8C009ACE8C0098D46704710B562
:102CA0000446AFF300802046BDE81040FDF785BA2A
:102CB00000487047A406002001491820ABBEFEE77B
:102CC0002600020070470000000000000000000025
:102CD000000000000000000000F8000000000000FC
:102CE00000333000000000100C06100C060000003D
:102CF00000000000000040C07840C0784000043F61
:102D000004043F040400007088FC08300000001830
:102D100020FF211E0000F008F000E0180000002154
:102D20001C031E211E0000F00888700000001E21F8
:102D300023241927211010160E00000000000000A7
:102D4000000000000000000000E018040200000085
:102D500000071820400000020418E00000000040B6
:102D6000201807000000404080F080404000020230
:102D7000010F01020200000000F00000000001014C
:102D8000011F01010100000000000000000080B0F0
:102D900070000000000000000000000000000001C2
:102DA00001010101010100000000000000000030ED
:102DB0003000000000000000000080601804006087
:102DC00018060100000000E010080810E000000FE5
:102DD000102020100F00001010F80000000000204C
:102DE000203F202000000070080808887000003094
:102DF000282422213000003008888848300000183C
:102E0000202020110E000000C02010F80000000754
:102E10000424243F240000F80888880808000019CA
:102E2000212020110E0000E0108888180000000FFB
:102E3000112020110E0000380808C83808000000D2
:102E4000003F000000000070880808887000001C27
:102E5000222121221C0000E010080810E0000000E0
:102E6000312222110F00000000C0C000000000004D
:102E70000030300000000000008000000000000072
:102E80008060000000000000804020100800000169
:102E9000020408102000404040404040400004042C
:102EA00004040404040000081020408000000020F6
:102EB000100804020100007048080808F000000033
:102EC000003036010000C030C828E810E0000718C4
:102ED000272423140B000000C038E0000000203C31
:102EE00023020227382008F8888888700000203FD5
:102EF000202020110E00C0300808080838000718EC
:102F000020202010080008F808080810E000203FE2
:102F1000202020100F0008F88888E8081000203FC3
:102F200020202320180008F88888E8081000203F97
:102F3000200003000000C03008080838000007180F
:102F40002020221E020008F808000008F808203F90
:102F5000210101213F20000808F808080000002096
:102F6000203F2020000000000808F8080800C0806A
:102F700080807F00000008F888C028180800203FE3
:102F800020012638200008F8080000000000203F3B
:102F900020202020300008F8F800F8F80800203F32
:102FA000003F003F200008F830C00008F808203F2C
:102FB000200007183F00E01008080810E0000F107C
:102FC000202020100F0008F808080808F000203F13
:102FD000210101010000E01008080810E0000F18AE
:102FE000242438504F0008F8888888887000203FD3
:102FF0002000030C302000708808080838000038D2
:10300000202121221C00180808F8080818000000D8
:10301000203F2000000008F808000008F808001F02
:10302000202020201F000878880000C838080000F1
:1030300007380E010000F80800F80008F800033C0B
:103040000700073C030008186880806818082030D3
:103050002C03032C30200838C800C83808000000B2
:10306000203F2000000010080808C8380800203859
:10307000262120201800000000FE020202000000AD
:10308000007F40404000000C30C000000000000005
:1030900000010638C00000020202FE0000000040ED
:1030A00040407F0000000000040202020400000013
:1030B0000000000000000000000000000000808010
:1030C00080808080808000020204000000000000F8
:1030D00000000000000000008080808000000019D7
:1030E000242222223F2008F8008080000000003FB8
:1030F000112020110E000000008080800000000ED2
:10310000112020201100000000808088F800000EAF
:10311000112020103F200000808080800000001FD0
:10312000222222221300008080F088888818002044
:10313000203F202000000000808080808000006B05
:1031400094949493600008F8008080800000203FF1
:10315000210000203F2000809898000000000020FF
:10316000203F20200000000000809898000000C050
:103170008080807F000008F8000080808000203F71
:1031800024022D302000000808F800000000002074
:10319000203F202000008080808080808000203FB1
:1031A00020003F20003F8080008080800000203F82
:1031B000210000203F200000808080800000001F50
:1031C000202020201F00808000808000000080FFE1
:1031D000A12020110E000000008080808000000EE1
:1031E000112020A0FF80808080008080800020202F
:1031F0003F2120000100000080808080800000339B
:10320000242424241900008080E080800000000035
:10321000001F202000008080000000808000001F30
:10322000202020103F2080808000008080800001CE
:103230000E300806010080800080008080800F3002
:103240000C030C300F000080800080808000002084
:10325000312E0E31200080808000008080808081AF
:103260008E70180601000080808080808000002120
:10327000302C2221300000000000807C020200007F
:103280000000003F404000000000FF000000000080
:103290000000FF0000000002027C800000000040EF
:1032A000403F00000000000601010202040400008B
:1032B000000000000000D7D380828282828282E2F6
:1032C000A2928A8682808000000000000040807FF9
:1032D0000000000000000000CDFE0000F848484853
:1032E000C8484848FF0809CA080080601F828A56FB
:1032F00023528E4027182641F000BFB50000FC4441
:1033000054545455FE545454F444440040300F4037
:10331000231549817F05091129444000B5E70000C4
:10332000F888888888FF88888888F800000000006E
:103330001F080808087F888888889F80F000B1E30C
:103340008060F80700FA4A4A4AFE4A4A4AFA0200EE
:103350000000FF008083462A122F424282838000B1
:10336000D0AF101010FF109008FC5754FD56545465
:1033700004000444827F018044271D0505155D95E6
:103380007100CABD101090909090901010FF101016
:1033900011161000002060203F10101000030C10C8
:1033A0002040F800C6B5407C407F484840F2121AE1
:1033B000D61212F20200908E404F201E804F20182D
:1033C0000710204F8000C2CA0014A4442434AD6604
:1033D00024940444A414000008090808090909FDFC
:1033E00009090B0808090800D4B41060028C00FE1B
:1033F00002F2525A565252F2020004047E41300F39
:10340000201349817F0109132000B3F5080889EAD8
:103410001888000404FC040404FC0000020100FFFE
:103420000186402018074080403F0000CABC1010B1
:10343000F01F10F00040E05847405060C0004022AC
:10344000150816210000FE42424242FE0000BBAFBA
:10345000008060F807000000FF4020100804000012
:10346000010000FF000402013F404040404078005E
:10347000BDDFC808090EE80800BEEAAAAAAAAABECB
:103480008000206F201C1310011E10141354904054
:103490003F00B3CF4042CC0000F888888808FF087E
:1034A00009CA080000003F90681F10209F4027189D
:1034B0002641F000CEAA0020222C2020E03F202030
:1034C0002020E00000008040201008060100014696
:1034D00080403F000000C4FA201008FC23108867D9
:1034E00004F40424548C000040300077808188B2BA
:1034F000848380E000116000B7FE0000FE222222DB
:10350000FE00FE828292A29E000080601F02428224
:103510007F00FF402F102C438000CEF100009088E8
:103520004C57A42454548C840000000001018042B4
:10353000221A07024282423E01010100A1FC000062
:10354000000040301CFF1C30400000000000000064
:103550000000000000FF0000000000000000A1FDCE
:1035600000000000000000FF00000000000000005C
:1035700000000000020C38FF380C020000000000C0
:10358000A1FB8080C0C0E0A090808080808080808F
:1035900080000000010103020400000000000000A0
:1035A0000000A1FA808080808080808090A0E0C0B0
:1035B000C080800000000000000000000402030141
:1035C00001000000B5E30000C04040407F4848488B
:1035D00048C80808000080403704041464041464D8
:1035E000040710E00000C9E8404042CC0040A09E23
:1035F0008282829EA02020000000003F90884043ED
:103600002C10284641808000D6C3001715D5555789
:10361000557D555755D5151700004040407F5555ED
:1036200055555555557F4040400000004C36000828
:1036300000000020A4020000280100085437000800
:10364000A4020020640A0000840100089184A24AB8
:1036500004680D01020304060708090204060810A5
:10366000691451000D144042445840407F4040507E
:1036700048C67B4044010213FF180D0808E8292EB4
:1036800028E80808C80C0B06011326FF0949897FA2
:103690001C0F4080060111151060028C3BFE920148
:1036A0000213FE180804047E01444850A006137F4C
:1036B000504844402809FC242424FC252624087969
:1036C000F789BF080F14308F80844C552525255568
:1036D0004C8080808059810916801E407E42427E47
:1036E000020B50427E8015404042CC000B1440A09B
:1036F0009E8282829EA02020080B113F908840432A
:103700002C10284641401118081715D55557557DDE
:10371000040412D515174E4040407F55011A7F0C06
:10372000011117424AD26A46C0080910F2121AD68D
:103730001212F2024013807F1201080911804F20FB
:10374000180710204F80011C53E0906A014C0400C0
:04375000787D01007F
:04000005080000ED02
:00000001FF
